:020000040800F2
:1000000000800120611E0008E91D0008EB1D0008AA
:10001000ED1D0008EF1D0008F11D000800000000A4
:10002000000000000000000000000000F31D0008B8
:10003000F51D000800000000F71D0008F91D00086C
:10004000B11E0008B11E0008B11E0008B11E000854
:10005000B11E0008B11E0008B11E0008B11E000844
:10006000B11E0008B11E0008B11E0008B11E000834
:10007000B11E0008B11E0008B11E0008B11E000824
:10008000B11E0008B11E0008B11E000800000000EB
:10009000000000000000000000000000B11E000889
:1000A000B11E0008B11E0008B11E0008B11E0008F4
:1000B000B11E0008B11E0008B11E0008B11E0008E4
:1000C000B11E0008B11E0008B11E0008B11E0008D4
:1000D000B11E0008B11E0008FD1D00080000000050
:1000E000B11E0008B11E0008B11E0008000000008B
:1000F000000000000000000000000000B11E000829
:1001000000000000B11E0008B11E0008B11E00086A
:1001100000000000000000000000000000000000DF
:10012000091E0008B11E0008B11E0008B11E00081B
:10013000B11E0008000000000000000000000000E8
:10014000000000000000000000000000B11E0008D8
:10015000B11E0008B11E0008B11E0008B11E000843
:10016000B11E0008B11E00080000000000000000E1
:10017000000000000000000000000000000000007F
:1001800000000000B11E0008000000000000000098
:04019000B11E000894
:1001940010B5054C237833B9044B13B10448AFF3BD
:1001A40000800123237010BD0C000020000000001B
:1001B4000C1F000808B5034B1BB103490348AFF3F8
:1001C400008008BD00000000100000200C1F000883
:1001D40053B94AB9002908BF00281CBF4FF0FF31AA
:1001E4004FF0FF3000F07AB9ADF1080C6DE904CEA0
:1001F40000F006F8DDF804E0DDE9022304B07047FE
:100204002DE9F0478C460D460446089E002B51D13B
:100214008A4217466DD9B2FA82FEBEF1000F0BD0A6
:10022400CEF1200C01FA0EF520FA0CFC02FA0EF7BE
:100234004CEA050C00FA0EF44FEA174A250CBCFBF5
:10024400FAF81FFA87F90AFB18CC45EA0C4508FBB3
:1002540009F3AB420AD9ED1908F1FF3280F023818A
:10026400AB4240F22081A8F102083D44ED1AA4B249
:10027400B5FBFAF00AFB105544EA054400FB09F902
:10028400A14509D9E41900F1FF3380F00A81A145A1
:1002940040F2078102383C44A4EB090440EA0840D8
:1002A4000021002E61D024FA0EF400233460736020
:1002B400BDE8F0878B4207D9002E54D0002186E890
:1002C40021000846BDE8F087B3FA83F1002940F025
:1002D4008E80AB4202D3824200F2FA80841A65EB2C
:1002E40003050120AC46002E3FD086E81010BDE87F
:1002F400F08712B90127B7FBF2F7B7FA87FEBEF110
:10030400000F34D1EB1B3A0C1FFA87FC0121B3FB1D
:10031400F2F8250C02FB183345EA03450CFB08F3FD
:10032400AB4207D9ED1908F1FF3002D2AB4200F21B
:10033400D1808046ED1AA3B2B5FBF2F002FB105552
:1003440043EA05440CFB00FCA44507D9E41900F179
:10035400FF3302D2A44500F2B8801846A4EB0C0483
:1003640040EA08409DE731463046BDE8F087CEF1CB
:10037400200405FA0EF307FA0EF720FA04F83A0CF3
:1003840025FA04F448EA0308B4FBF2F14FEA1845ED
:1003940002FB11441FFA87FC45EA044501FB0CF3F8
:1003A400AB4200FA0EF409D9ED1901F1FF3080F0E7
:1003B4008A80AB4240F2878002393D44EB1A1FFA2F
:1003C40088F5B3FBF2F002FB103345EA034500FB6A
:1003D4000CF3AB4207D9ED1900F1FF386FD2AB42F1
:1003E4006DD902383D44EB1A40EA01418FE7C1F16F
:1003F400200722FA07F88B4005FA01F448EA0303C0
:1004040020FA07FE4FEA134CFD404EEA040EB5FBFA
:10041400FCF94FEA1E440CFB19551FFA83F844EA11
:10042400054509FB08F4AC4202FA01F200FA01FAAC
:1004340008D9ED1809F1FF3043D2AC4241D9A9F1F2
:1004440002091D442D1B1FFA8EFEB5FBFCF00CFBAC
:1004540010554EEA054400FB08F8A04507D9E418F6
:1004640000F1FF3529D2A04527D902381C4440EABF
:100474000940A4EB0804A0FB02894C45C6464D463E
:1004840015D312D056B1BAEB0E0364EB050404FA8B
:1004940007F7CB401F43CC40376074600021BDE8B0
:1004A400F0871846F8E69046E0E6C245EAD2B8EB93
:1004B400020E69EB03050138E4E72846D7E7404616
:1004C40091E78146BEE7014678E702383C4445E7B8
:1004D400084608E7A8F102083D442BE7704700BF2F
:1004E40038B50E4A0E4B054618784FF47A73B3FBB1
:1004F400F0F31068B0FBF3F000F09CFA044658B92E
:100504000F2D09D8024629464FF0FF3000F050FA6B
:10051400044B20461D6038BD012038BD0800002072
:10052400000000200400002008B50B4B1A6842F4B8
:1005340000721A601A6842F480621A601A6842F4FF
:1005440080721A60032000F021FA0020FFF7C8FF30
:1005540001F072FB002008BD003C0240034A044B3A
:1005640011681B780B441360704700BF44000020DF
:1005740000000020014B1868704700BF44000020B1
:1005840038B50446002800F09B80056C25B901F0BD
:1005940073FB656484F83C50236CDB0600F18E80A9
:1005A400236C23F4885323F0020343F002032364EF
:1005B400444B5A6822F440325A605A6861680A43CC
:1005C4005A60236821695A6822F480725A605A6812
:1005D40042EA01225A605A68A16822F040725A60C5
:1005E4005A680A435A609A68E16822F400629A6081
:1005F4009A680A439A603449A26A8A4252D0996836
:1006040021F07061996099680A439A609A68E16A76
:1006140022F040529A609A680A439A609A68217E4E
:1006240022F002029A609A6842EA41029A6094F8BF
:100634002020002A3ED05A68616A42F400625A605F
:100644005A6822F460425A605A68013942EA4132D7
:100654005A60DA6AE16922F47002DA62DA6A01390C
:1006640042EA0152DA629A6894F8301022F4007275
:100674009A609A6842EA41229A609A68616922F40F
:1006840080629A609A68002042EA81229A606064DB
:10069400236C23F0030343F001032364002384F851
:1006A4003C3038BD9A6822F070629A609A6822F0F1
:1006B4004052B2E75A6822F40062C9E70120EDE72C
:1006C400012038BD002301400100000F37B5134657
:1006D4000022019290F83C20012A044665D0056866
:1006E400012280F83C20AA68D20705D5AA68D00761
:1006F40015D4002003B030BDAA6842F00102AA60FC
:100704002B4A10682B4AB0FBF2F000EB400001903A
:10071400019A002AEAD0019A013A0192F8E7206C82
:1007240020F4E06020F0010040F4807020646A68E6
:10073400520541BF206C20F4405040F480502064A6
:10074400226CA06B12F480521CBF626C22F0060271
:100754006264002284F83C20174AC263174A026488
:10076400174AC2646FF022022A606A6842F080620B
:100774006A60AA6842F48072AA600A4605F14C01D4
:1007840000F002FA0F4B5B6813F01F0F236808D1C7
:10079400986810F04050ACD19A6842F080429A6058
:1007A400A8E7094A9342A4D1F2E70220A2E700BFD6
:1007B4000800002040420F00F7070008D507000892
:1007C400E107000800230140002001407047704702
:1007D40008B5806BFFF7FBFF08BD7047806B08B559
:1007E40040230364436C43F004034364FFF7F5FFC1
:1007F40008BD836B1A6C12F0500F10B51A6C23D11C
:1008040042F400721A641A68916811F0405F17D1BB
:10081400197EA9B9D16A11F4700F02D09168480504
:100824000ED4516821F0200151601A6C22F48072B8
:100834001A641A6CD1045EBF1A6C42F001021A6485
:100844001846FFF7C3FF10BDD20603D51846FFF7BD
:10085400C4FF10BD9B6BBDE81040DB6C1847000063
:10086400F7B50023019390F83C30012B00F083800E
:100874000D6804688A680123092D80F83C30AEB203
:100884002AD906EB4603E7681E3B4FF0070E0EFA23
:1008940003FE27EA0E07E760E76802FA03F33B4327
:1008A400E3604A68062A4FEA820325D81344676B3B
:1008B400591F1F238B4027EA03036363626B06FA05
:1008C40001F1114361632D4B9C4234D0002380F825
:1008D4003C30184603B0F0BD276905EB45034FF0E3
:1008E400070E0EFA03FE27EA0E072761276902FAAC
:1008F40003F33B432361D4E70C2A0ED81344216B42
:10090400A3F123021F23934021EA03032363236BF0
:1009140006FA02F21A432263D5E71344E16A413B23
:100924001F229A4021EA0202E262E26A06FA03F115
:100934001143E162C7E7122D04D1114A536843F40D
:1009440080035360A5F11003012BBFD80C4A5368F0
:10095400102D43F400035360B8D10A4B0A4A1B68B4
:10096400B3FBF2F20A2353430193019B002BADD056
:10097400019B013BF8E70220ACE700BF00200140E7
:10098400002301400800002040420F00074AD368BA
:1009940023F4E0631B041B0C43F0BF63000243F425
:1009A400003300F4E0600343D360704700ED00E0DF
:1009B400174B30B5DC68C4F30224C4F10703251DCA
:1009C400042B28BF0423062D4FF0010505FA03F379
:1009D40003F1FF338CBF033C00241940A14005FA06
:1009E40004F4013C2240002842EA01024FEA0212C8
:1009F400ADBF00F1604000F00F00064B00F5614010
:100A0400B5BFD2B2D2B21A5480F8002330BD00BFB1
:100A140000ED00E014ED00E0002808DB42090123AA
:100A240000F01F0003FA00F0014B43F82200704766
:100A340000E100E00138B0F1807F0AD2064B074A9A
:100A44005860F02182F823100020072298601A6071
:100A540070470120704700BF10E000E000ED00E0A7
:100A64000368DAB223F47F7323F003031821103AE6
:100A7400B2FBF1F20449032A88BF0433895C83651D
:100A8400C165806D704700BF241F000870B504461F
:100A9400FFF770FD0546002C71D0002384F8343034
:100AA4002268022384F83530136823F001031360AD
:100AB40021680B68D8073CD40B68324D6268A06982
:100AC4001D40A3681343E268134322691343626918
:100AD4001343E26903431343226A1343626A042AF9
:100AE40043EA050301BF266BE56A35432B430B60DC
:100AF4004B69042A23F0070343EA02030BD1A26AD9
:100B0400E56A13433DB1F8B9012A2DD001D3022A75
:100B140001D1EA012BD44B612046FFF7A1FFE26D1E
:100B24003F239340836000200123606584F83530BF
:100B340070BDFFF71FFD401B0528B9D9202363654D
:100B4400032084F8350070BDB0F5005F13D1032A8B
:100B5400E1D801A050F822F0730B0008170B00082D
:100B6400730B00086D0B0008B5F1C07FD3D140238F
:100B740063650120E5E7022AF9D9032AC8E70120C1
:100B840070BD00BF3F8010F070B590F83440012C68
:100B940036D0012480F8344090F83540866D012C1D
:100BA4004FF000054FF0020428D180F83540046866
:100BB4004565256825F48025256063608368402B9E
:100BC4000EBFA260A160E260C26D08BFE1603F2376
:100BD4009340B360236843F016032360636943F0D2
:100BE40080036361036C1BB1236843F00803236033
:100BF400236843F001032360002070BD80F8345063
:100C0400022070BD90F83530022B03D08023436559
:100C1400012070470268052380F83530136823F0FB
:100C24000103136000207047F7B5002301935A4B6A
:100C3400856D1F68C36D2E6808229A4016420446CB
:100C44000CD001680868400708D5086820F0040043
:100C54000860AA60626D42F00102626501229A4056
:100C6400164208D021684969090641BFAA60626D2D
:100C740042F00202626504229A40164208D02168BA
:100C84000968880741BFAA60626D42F00402626588
:100C940010229A40164210D02368196809070CD50F
:100CA400AA601A68500335D51B68190301D4236C54
:100CB40000E0A36C0BB120469847E16D20228A40E6
:100CC400164238D023681868C60634D5AA6094F84A
:100CD4003520052A1A6825D122F016021A605A69AD
:100CE40022F080025A61226C0AB9A26C1AB11A6805
:100CF40022F008021A603F238B40AB60002384F883
:100D04003430012384F83530236D0BB120469847E5
:100D140003B0F0BD1A68D2055EBF1A6822F008025B
:100D24001A60C4E7500328D51B68190332D4636CD6
:100D34000BB120469847636D002BE9D0636DDA0749
:100D440019D50523226884F83530136823F001038C
:100D540013604FF41653B7FBF3F7019B01339F4223
:100D6400019302D31368DB07F7D4002384F83430EB
:100D7400012384F83530E36CC7E71A6812F48072F3
:100D840008D1196821F010011960012384F8342076
:100D940084F83530E36BCBE7080000202DE9F04FF1
:100DA40085B00B68DFF89C81644A01934FF0010918
:100DB4000023019C09FA03F707EA0406B74240F04E
:100DC400AD804C6824F0100ABAF1020F16D14FEA34
:100DD400D30C00EB8C0C03F0070BDCF820504FEA2B
:100DE4008B0B4FF00F0E0EFA0BFE25EA0E0E0D695B
:100DF40005FA0BF545EA0E05CCF820504FEA430CF2
:100E04000325D0F800B005FA0CF5ED4304F0030E09
:100E14000BEA050B0EFA0CFE0AF1FF3A4EEA0B0E32
:100E2400BAF1010F0095C0F800E015D8D0F808E039
:100E340005EA0E0ECD6805FA0CFA4AEA0E0EC0F861
:100E440008E0D0F804E02EEA0707C4F3001E0EFA07
:100E540003FE4EEA07074760C768009D3D408F6860
:100E640007FA0CF73D43C560E50057D54FF0000B7A
:100E7400CDF80CB0D8F84470314D47F48047C8F829
:100E84004470D8F8447007F480470397039F23F015
:100E9400030707F1804707F59C3703F0030CD7F8E5
:100EA40008A04FEA8C0C4FF00F0E0EFA0CFEA8426D
:100EB4002AEA0E0E39D005F58065A84237D005F52B
:100EC4008065A84235D005F58065A84233D005F584
:100ED4008065A84214BF0725042505FA0CF545EAE8
:100EE4000E05BD601568F74314F4803F0CBF3D4008
:100EF40035431560556814F4003F0CBF3D4035433D
:100F04005560956814F4801F0CBF3D4035439560CF
:100F1400D568A40254BF3D403543D5600133102B3E
:100F24007FF447AF05B0BDE8F08F5D46D5E70125F6
:100F3400D3E70225D1E70325CFE700BF003C0140FA
:100F440000000240003802400AB181617047090480
:100F5400FBE700002DE9F341044618B9012002B073
:100F6400BDE8F0810368DD0710D42368980758D4DE
:100F740023681A0700F19A8023685B0700F1B880A0
:100F8400A269002A40F019810020E8E7A64B9A687C
:100F940002F00C02042A07D09A6802F00C02082A14
:100FA4000AD15B68590207D59F4B1B689A03DCD5AD
:100FB4006368002BD9D1D1E763689B4DB3F5803FBB
:100FC40011D12B6843F480332B60FFF7D3FA964D8D
:100FD40006462B689B03C8D4FFF7CCFA801B642811
:100FE400F7D90320BBE7B3F5A02F04D12B6843F452
:100FF40080232B60E5E72A6822F480322A602A687D
:1010040022F480222A60002BDFD1FFF7B3FA0646D0
:101014002B689F03A9D5FFF7ADFA801B6428F7D985
:10102400DFE7814B9A6812F00C0F07D09A6802F040
:101034000C02082A11D15B685E020ED47A4B1A683E
:10104400950702D5E268012A88D11A68216922F03D
:10105400F80242EAC1021A608AE7E268734BB2B14D
:1010640001221A60FFF786FA6F4D06462B6898072F
:1010740007D52B68226923F0F80343EAC2032B60E7
:1010840076E7FFF777FA801B0228EFD9A9E71A6001
:10109400FFF770FA644D06462B6899077FF568AF31
:1010A400FFF768FA801B0228F6D99AE76269604B59
:1010B4007AB101221A60FFF75DFA5B4D06466B6F49
:1010C4009F073FF559AFFFF755FA801B0228F6D961
:1010D40087E71A60FFF74EFA534D06466B6F980781
:1010E4007FF54AAFFFF746FA801B0228F6D978E766
:1010F4004D4B1A6C12F0805228D101921A6C42F0B6
:1011040080521A641B6C03F080530193019B0126E7
:10111400484D2B68D9051BD5A368434D012B27D116
:101124002B6F43F001032B67FFF724FA3E4D07466C
:1011340041F288382B6F9B0739D5002E3FF420AF3E
:10114400394A136C23F08053136419E70026DFE750
:101154002B6843F480732B60FFF70CFA07462B6867
:10116400DA05D9D4FFF706FAC01B0228F7D938E705
:10117400052B04D12B6F43F004032B67D0E72A6FB0
:1011840022F001022A672A6F22F004022A67002B48
:10119400CAD1FFF7EFF941F2883807462B6F980759
:1011A400CBD5FFF7E7F9C01B4045F7D919E7FFF79F
:1011B400E1F9C01B4045BDD913E71B4DAB6803F0F3
:1011C4000C03082B3FF4CAAE1B4E0023022A3360E3
:1011D40034D1FFF7CFF907462B6899011ED4226A50
:1011E400E3691343626A43EA8213E26A43EA0263ED
:1011F400A26A0D4C5208013A43EA02436B60012390
:101204003360FFF7B7F9054623689A013FF5BCAE92
:10121400FFF7B0F9401B0228F6D9E2E6FFF7AAF976
:10122400C01B0228D8D9DCE600380240000047423F
:10123400800E47420070004060004742FFF79AF971
:1012440004462B689B017FF59FAEFFF793F9001BC3
:101254000228F6D9C5E600BF134908B58B6803F028
:101264000C03042B03D0082B03D0104808BD1048EE
:1012740008BD4A684B68496813F4800314BF0C48DE
:101284000A48C1F3881118BF002302F03F02A1FBF2
:101294000001FEF79DFF044B5B68C3F30143013378
:1012A4005B00B0FBF3F008BD003802400024F400FA
:1012B40000127A002DE9F0410D46044610B90120D0
:1012C400BDE8F081444B1A6802F00F028A4228D329
:1012D40021688F072DD4C80740D43F4B1A6802F009
:1012E4000F02954266D3226851076CD4130707D5C1
:1012F4003A4A2169936823F4604343EAC103936043
:10130400FFF7AAFF354B364A9B68C3F30313D35C3C
:10131400D840344B18600020FFF7E2F80020BDE805
:10132400F081CAB21A701B6803F00F039942C6D148
:10133400CEE72A4B11F0040F1EBF9A6842F4E05224
:101344009A600E0742BF9A6842F460429A609A68B3
:10135400A06822F0F00202439A60BCE762681F4B67
:10136400012A1DD11B6813F4003FA8D01B4EB3689B
:1013740023F003031343B360FFF7FCF841F288380A
:101384000746B368626803F00C03B3EB820FA4D082
:10139400FFF7F0F8C01B4045F3D90320BDE8F08106
:1013A400911E01291B6802D813F0007FDDE713F0BA
:1013B400020FDAE7EAB21A701B6803F00F039D42CA
:1013C4007FF47DAF8FE70549E0688B6823F4E05331
:1013D40003438B608AE700BF003C024000380240B0
:1013E4002C1F000808000020044B054A9B68C3F327
:1013F4008223D35C034A1068D84070470038024007
:101404003C1F000808000020044B054A9B68C3F3F6
:101414004233D35C034A1068D84070470038024016
:101424003C1F0008080000200368DA6822F4907268
:10143400DA605A6922F001025A61202380F83A30B6
:10144400704700002DE9F0470668C2683369C16936
:1014540023F4405313433361044683680069F268FC
:101464000343606922F41642034322F00C020B4347
:101474001343F3607369A26923F440731343B1F512
:10148400004F73617A4B7CD19E4203D003F5806395
:101494009E4244D1FFF7B8FF192505FB00F36068AD
:1014A4004FF064094000B3FBF0F3B3FBF9F34FEAE8
:1014B4000318FFF7A9FF636868435B00B0FBF3F709
:1014C400FFF7A2FF636868435B00B0FBF3F3B3FB71
:1014D400F9F309FB1373DB003233B3FBF9F35B005D
:1014E40003F4F877FFF790FF626868435200B0FB9B
:1014F400F2FAFFF789FF636868435B00B0FBF3F31C
:10150400B3FBF9F309FB13A3DB003233B3FBF9F3A9
:1015140003F0070343443B44B360BDE8F087FFF79F
:1015240063FF192505FB00F360684FF06409400070
:10153400B3FBF0F3B3FBF9F34FEA0318FFF754FFDF
:10154400636868435B00B0FBF3F7FFF74DFF636824
:1015540068435B00B0FBF3F3B3FBF9F309FB1373CC
:10156400DB003233B3FBF9F35B0003F4F877FFF7E6
:101574003BFF626868435200B0FBF2FAFFF734FFA6
:10158400B9E79E4202D03B4B9E4240D1FFF73CFF5D
:10159400676819254FF0640905FB00F3BF00B3FB2E
:1015A400F7F3B3FBF9F31F01FFF72EFF63686843FA
:1015B4009B00B0FBF3F8FFF727FF636868439B00C9
:1015C400B0FBF3F3B3FBF9F309FB13831B013233D1
:1015D400B3FBF9F303F0F008FFF716FF6268684302
:1015E4009200B0FBF2FAFFF70FFF636868439B00B9
:1015F400B0FBF3F3B3FBF9F309FB13A31B01323381
:10160400B3FBF9F303F00F0343EA080383E7FFF79F
:10161400EBFE676819254FF0640905FB00F3BF0072
:10162400B3FBF7F3B3FBF9F31F01FFF7DDFE6368C8
:1016340068439B00B0FBF3F8FFF7D6FE636868438A
:101644009B00B0FBF3F3B3FBF9F309FB13831B011A
:101654003233B3FBF9F303F0F008FFF7C5FE626819
:1016640068439200B0FBF2FAFFF7BEFEBDE700BF8D
:101674000010014000140140F8B504460E46174618
:101684001D4621680B6836EA030301D10020F8BD2A
:101694006B1CF7D095B92368DA6822F4D072DA604B
:1016A4005A6922F001025A61202384F8393084F8FF
:1016B4003A30002384F838300320F8BDFEF75AFF8F
:1016C400C01B8542DDD2E6E710B5044640B390F86E
:1016D400393003F0FF021BB980F8382000F046FBD4
:1016E4002268242384F83930D36823F40053D36068
:1016F4002046FFF7A7FE23681A6922F490421A6174
:101704005A6922F02A025A61DA6842F40052DA6015
:1017140000202023E06384F8393084F83A3010BD87
:10172400012010BD2DE9F0411F4690F83930202BDF
:1017340004460D4690464FD100294AD0002A48D08D
:1017440090F83830012B47D0012380F8383000233B
:10175400C363212380F83930FEF70CFFA4F82480FA
:101764000646A4F82680E38C9BB26BB93B4632460E
:1017740040212046FFF780FFB0B9202384F8393098
:1017840084F83800BDE8F081E38C013B9BB2E3842C
:10179400A368B3F5805F32463B464FF08001204694
:1017A4000ED1FFF769FF10B10320BDE8F0812B884B
:1017B4002268C3F308035360236943B90235D2E7AF
:1017C400FFF75AFF0028EFD123682A785A600135C1
:1017D400C9E70120BDE8F0810220BDE8F08170472F
:1017E400704790F83A30222B10B536D183680169DE
:1017F4000268B3F5805F836A23D15268E9B9C2F302
:10180400080223F8022B8362C48D013CA4B2C48570
:101814008CB90368DA6822F02002DA60DA6822F40C
:101824008072DA605A6922F001025A61202380F83A
:101834003A30FFF7D5FF002010BDD2B223F8012BB8
:10184400E1E721B9591C526881621A70DCE75268D9
:10185400591C816202F07F02F7E7022010BD704735
:1018640003681A68D96870B5160704465D6907D11C
:1018740096065AD58D0658D5BDE87040FFF7B1BF1E
:1018840015F0010502D111F4907F4ED0D30705D590
:10189400CE0542BFE36B43F00103E363500704D575
:1018A4001DB1E36B43F00203E363930704D51DB159
:1018B400E36B43F00403E363160704D51DB1E36B44
:1018C40043F00803E363E36B002B66D0950604D56D
:1018D400880602D52046FFF784FF23685D69E26B22
:1018E4001107204602D415F040051AD0FFF79CFDDD
:1018F40023685A69520610D55A69606B22F0400277
:101904005A6150B1254B0365FFF77CF9002844D098
:10191400606BBDE87040036D18472046FFF79FFFDA
:1019240070BDFFF79CFFE56370BD160627D50D0655
:1019340025D594F83920212A2FD1A268B2F5805FE9
:10194400226A17D11188C1F308015960216979B954
:1019540002322262E28C013A92B2E284EAB9DA6893
:1019640022F08002DA60DA6842F04002DA6070BD88
:101974000132EEE7511C216212785A60EAE7500600
:101984000BD54A0609D5DA6822F04002DA60202332
:1019940084F839302046FFF722FF70BDA5190008EE
:1019A40008B5806B0023C385C384FFF758FF08BDC7
:1019B40030B595B03022002108A800F09DFA00212E
:1019C400142203A800F098FA00241C4B01941A6C0A
:1019D40042F080521A641B6C194A03F0805301933D
:1019E400019B0294136823F4404343F400431360BF
:1019F40013680F9403F440430293029B01230B9357
:101A040010230C9310934FF4A8731193042302250D
:101A1400129308A80723139308950E95FFF79AFAD3
:101A24000F23039329464FF4805303A80495059488
:101A340006930794FFF73EFC15B030BD0038024012
:101A44000070004080B58AB0FEF76EFDFFF7B0FF6E
:101A5400142200246C4D00210DEB020000F04CFA1E
:101A640001942B6B694843F004032B632B6B03F045
:101A740004030193019B02942B6B43F080032B63BB
:101A84002B6B03F080030293029B03942B6B43F0B4
:101A940001032B632B6B03F001030393039B049457
:101AA4002B6B43F002032B632B6B03F002032246E0
:101AB40004932021049BFFF747FA4FF40053059346
:101AC40005A9534B5348069301260794FFF766F97B
:101AD400202305A94D480593069607940894FFF71B
:101AE4005DF900942B6B43F480032B632B6B4A4DFD
:101AF40003F480032246214600933820009BFEF71E
:101B040057FF3820FEF788FF2146102205A800F071
:101B1400F3F9424AAC604FF4803385E80C000627A1
:101B24003F4B2E6128462E7685F82040EC62AB624E
:101B3400EC6085F830606E61EF61FEF721FD0723EC
:101B440005A92846059406960793FEF789FE022305
:101B540005A92846059606930426FEF781FE03236D
:101B640005A9284606930596FEF77AFE082305A9DB
:101B7400284605930696FEF773FE0A23059305A9E6
:101B8400052328460693FEF76BFE0B2305A928467A
:101B940005930697FEF764FE2248234984604FF4B8
:101BA400E13380E80A000C23C4600461436184616A
:101BB400C461FFF789FD3A461C491D4C2846FEF7CF
:101BC40085FD1A4B17481A88A270110A5A88617049
:101BD4002271110A9A88E170A271110ADA8861717E
:101BE4002272110A1A895B89E171A272110A1A0A16
:101BF4006172E27223730E220A230D492770677300
:101C0400FFF790FDDDE700BF00380240000002400E
:101C1400000021100008024048000020002001407C
:101C24000100000FF00000200044004028000020C4
:101C3400340000207047000007B50E4B00210091CE
:101C44005A6C42F480425A645A6C02F48042009204
:101C5400009A01911A6C42F080521A641B6C03F0D2
:101C6400805301930720019BFEF790FE03B05DF8BB
:101C740004FB00BF0038024070B514228AB0064647
:101C840000210DEB020000F037F93268314B9A4223
:101C94005DD103F58C33002501955A6C2E4842F42E
:101CA40080725A645A6C02F480720192019A02950D
:101CB4001A6B42F004021A631A6B02F004020292D5
:101CC400029A03951A6B42F001021A631A6B02F02E
:101CD40001020392039A04951A6B42F002021A63FA
:101CE4001B6B03F002030324049305A9049B0594CE
:101CF4000694FFF753F8132305A91848059306948F
:101D04000795FFF74BF801231548059305A9069499
:101D14000795144CFFF742F8134BA56084E828009C
:101D24004FF4806323614FF4006363614FF4005305
:101D3400A36120464FF48073E560E3612562656228
:101D4400FEF7A4FE08B1FFF775FFB463A6630AB0FB
:101D540070BD00BF002001400008024000000240A6
:101D640000040240900000201064024010B50446B4
:101D740088B01422002103A800F0BEF82268174B93
:101D84009A4228D103F5FA33002401941A6C1448BA
:101D940042F400321A641A6C02F400320192019A7D
:101DA40002941A6B42F001021A631B6B03F00103E5
:101DB4000293029B0C2303930223049303A9072396
:101DC4000793FEF7EBFF262022462146FEF7F0FD9F
:101DD4002620FEF721FE08B010BD00BF00440040DD
:101DE400000002407047FEE7FEE7FEE7FEE77047AB
:101DF40070477047FEF7B2BB0148FFF731BD00BF23
:101E0400F00000200148FEF70FBF00BF9000002043
:101E14000F49D1F8883043F47003C1F888300D4B72
:101E24001A68002042F001021A6098601A6822F0D1
:101E3400847222F480321A60074A5A601A6822F4C3
:101E440080221A60D8604FF000638B60704700BF37
:101E540000ED00E00038024010300024DFF834D0F8
:101E6400002103E00C4B5B58435004310B480C4BEE
:101E740042189A42F6D30B4A02E0002342F8043B8C
:101E8400094B9A42F9D3FFF7C3FF00F011F8FFF7AB
:101E9400D9FD704700800120541F00080000002075
:101EA4000C0000200C00002030010020FEE70000A0
:101EB40070B50D4E0D4CA41BA4100025A54209D1EC
:101EC4000B4E0C4C00F020F8A41BA4100025A542D6
:101ED40005D170BD56F8253098470135EEE756F820
:101EE400253098470135F2E74C1F00084C1F0008C5
:101EF4004C1F0008501F000802440346934200D1BF
:101F0400704703F8011BF9E7F8B500BFF8BC08BC3B
:101F14009E467047F8B500BFF8BC08BC9E467047A3
:101F24000006101600061016000000000000000055
:101F3400010203040607080900000000010203046B
:081F4400C0E2FF7F0100000074
:041F4C00B9010008CF
:041F500095010008EF
:0C1F540001000000100000000024F40058
:0400000508001E6170
:00000001FF
